{
  "contractName": "Engine",
  "abi": [
    {
      "constant": true,
      "inputs": [],
      "name": "necAddress",
      "outputs": [
        {
          "name": "",
          "type": "address"
        }
      ],
      "payable": false,
      "stateMutability": "view",
      "type": "function"
    },
    {
      "constant": true,
      "inputs": [],
      "name": "totalEtherConsumed",
      "outputs": [
        {
          "name": "",
          "type": "uint256"
        }
      ],
      "payable": false,
      "stateMutability": "view",
      "type": "function"
    },
    {
      "constant": true,
      "inputs": [],
      "name": "liquidEther",
      "outputs": [
        {
          "name": "",
          "type": "uint256"
        }
      ],
      "payable": false,
      "stateMutability": "view",
      "type": "function"
    },
    {
      "constant": true,
      "inputs": [],
      "name": "frozenEther",
      "outputs": [
        {
          "name": "",
          "type": "uint256"
        }
      ],
      "payable": false,
      "stateMutability": "view",
      "type": "function"
    },
    {
      "constant": true,
      "inputs": [],
      "name": "auctionCounter",
      "outputs": [
        {
          "name": "",
          "type": "uint256"
        }
      ],
      "payable": false,
      "stateMutability": "view",
      "type": "function"
    },
    {
      "constant": true,
      "inputs": [],
      "name": "totalNecBurned",
      "outputs": [
        {
          "name": "",
          "type": "uint256"
        }
      ],
      "payable": false,
      "stateMutability": "view",
      "type": "function"
    },
    {
      "constant": true,
      "inputs": [],
      "name": "lastThaw",
      "outputs": [
        {
          "name": "",
          "type": "uint256"
        }
      ],
      "payable": false,
      "stateMutability": "view",
      "type": "function"
    },
    {
      "constant": true,
      "inputs": [],
      "name": "thisAuctionTotalEther",
      "outputs": [
        {
          "name": "",
          "type": "uint256"
        }
      ],
      "payable": false,
      "stateMutability": "view",
      "type": "function"
    },
    {
      "constant": true,
      "inputs": [],
      "name": "NEC_DECIMALS",
      "outputs": [
        {
          "name": "",
          "type": "uint256"
        }
      ],
      "payable": false,
      "stateMutability": "view",
      "type": "function"
    },
    {
      "constant": true,
      "inputs": [],
      "name": "thawingDelay",
      "outputs": [
        {
          "name": "",
          "type": "uint256"
        }
      ],
      "payable": false,
      "stateMutability": "view",
      "type": "function"
    },
    {
      "inputs": [
        {
          "name": "_delay",
          "type": "uint256"
        },
        {
          "name": "_token",
          "type": "address"
        }
      ],
      "payable": false,
      "stateMutability": "nonpayable",
      "type": "constructor"
    },
    {
      "anonymous": false,
      "inputs": [
        {
          "indexed": false,
          "name": "amount",
          "type": "uint256"
        }
      ],
      "name": "Thaw",
      "type": "event"
    },
    {
      "anonymous": false,
      "inputs": [
        {
          "indexed": false,
          "name": "amount",
          "type": "uint256"
        },
        {
          "indexed": false,
          "name": "price",
          "type": "uint256"
        },
        {
          "indexed": false,
          "name": "burner",
          "type": "address"
        }
      ],
      "name": "Burn",
      "type": "event"
    },
    {
      "anonymous": false,
      "inputs": [
        {
          "indexed": false,
          "name": "amount",
          "type": "uint256"
        }
      ],
      "name": "FeesPaid",
      "type": "event"
    },
    {
      "anonymous": false,
      "inputs": [
        {
          "indexed": true,
          "name": "auctionNumber",
          "type": "uint256"
        },
        {
          "indexed": false,
          "name": "ethPurchased",
          "type": "uint256"
        },
        {
          "indexed": false,
          "name": "necBurned",
          "type": "uint256"
        }
      ],
      "name": "AuctionClose",
      "type": "event"
    },
    {
      "constant": false,
      "inputs": [],
      "name": "payFeesInEther",
      "outputs": [],
      "payable": true,
      "stateMutability": "payable",
      "type": "function"
    },
    {
      "constant": false,
      "inputs": [],
      "name": "thaw",
      "outputs": [],
      "payable": false,
      "stateMutability": "nonpayable",
      "type": "function"
    },
    {
      "constant": true,
      "inputs": [],
      "name": "getPriceWindow",
      "outputs": [
        {
          "name": "window",
          "type": "uint256"
        }
      ],
      "payable": false,
      "stateMutability": "view",
      "type": "function"
    },
    {
      "constant": true,
      "inputs": [],
      "name": "percentageMultiplier",
      "outputs": [
        {
          "name": "",
          "type": "uint256"
        }
      ],
      "payable": false,
      "stateMutability": "view",
      "type": "function"
    },
    {
      "constant": true,
      "inputs": [],
      "name": "enginePrice",
      "outputs": [
        {
          "name": "",
          "type": "uint256"
        }
      ],
      "payable": false,
      "stateMutability": "view",
      "type": "function"
    },
    {
      "constant": true,
      "inputs": [
        {
          "name": "necAmount",
          "type": "uint256"
        }
      ],
      "name": "ethPayoutForNecAmount",
      "outputs": [
        {
          "name": "",
          "type": "uint256"
        }
      ],
      "payable": false,
      "stateMutability": "view",
      "type": "function"
    },
    {
      "constant": false,
      "inputs": [
        {
          "name": "necAmount",
          "type": "uint256"
        }
      ],
      "name": "sellAndBurnNec",
      "outputs": [],
      "payable": false,
      "stateMutability": "nonpayable",
      "type": "function"
    },
    {
      "constant": true,
      "inputs": [],
      "name": "necToken",
      "outputs": [
        {
          "name": "",
          "type": "address"
        }
      ],
      "payable": false,
      "stateMutability": "view",
      "type": "function"
    },
    {
      "constant": true,
      "inputs": [],
      "name": "getNextPriceChange",
      "outputs": [
        {
          "name": "newPriceMultiplier",
          "type": "uint256"
        },
        {
          "name": "nextChangeTimeSeconds",
          "type": "uint256"
        }
      ],
      "payable": false,
      "stateMutability": "view",
      "type": "function"
    },
    {
      "constant": true,
      "inputs": [],
      "name": "getNextAuction",
      "outputs": [
        {
          "name": "nextStartTimeSeconds",
          "type": "uint256"
        },
        {
          "name": "predictedEthAvailable",
          "type": "uint256"
        },
        {
          "name": "predictedStartingPrice",
          "type": "uint256"
        }
      ],
      "payable": false,
      "stateMutability": "view",
      "type": "function"
    },
    {
      "constant": true,
      "inputs": [],
      "name": "getCurrentAuction",
      "outputs": [
        {
          "name": "auctionNumber",
          "type": "uint256"
        },
        {
          "name": "startTimeSeconds",
          "type": "uint256"
        },
        {
          "name": "nextPriceChangeSeconds",
          "type": "uint256"
        },
        {
          "name": "currentPrice",
          "type": "uint256"
        },
        {
          "name": "nextPrice",
          "type": "uint256"
        },
        {
          "name": "initialEthAvailable",
          "type": "uint256"
        },
        {
          "name": "remainingEthAvailable",
          "type": "uint256"
        }
      ],
      "payable": false,
      "stateMutability": "view",
      "type": "function"
    }
  ],
  "bytecode": "0x608060405260c8600b556023600c5534801561001a57600080fd5b506040516040806114108339810180604052604081101561003a57600080fd5b8101908080519060200190929190805190602001909291905050504260038190555081600481905550806000806101000a81548173ffffffffffffffffffffffffffffffffffffffff021916908373ffffffffffffffffffffffffffffffffffffffff1602179055506100c96012600a0a6103e86100d664010000000002610f8f179091906401000000009004565b60088190555050506101a3565b6000808314156100e9576000905061019d565b600082840290508284828115156100fc57fe5b04141515610198576040517f08c379a00000000000000000000000000000000000000000000000000000000081526004018080602001828103825260218152602001807f536166654d6174683a206d756c7469706c69636174696f6e206f766572666c6f81526020017f770000000000000000000000000000000000000000000000000000000000000081525060400191505060405180910390fd5b809150505b92915050565b61125e806101b26000396000f3fe60806040526004361061011d576000357c0100000000000000000000000000000000000000000000000000000000900463ffffffff1680631bb7f6861461012257806321b3611e146101795780632e355e5d146101d057806332bc1549146101da57806336b53a301461020557806337e1dfcc14610237578063469fb2ef146102625780635920375c146102b15780637eced8dc146102c8578063844541f1146102f3578063a7e766441461031e578063ab32b03c14610349578063ab69c5be14610374578063b5d715c51461039f578063c6d9f123146103ca578063d22741b8146103f5578063dcb66f1214610420578063e1dc783014610475578063e2516bbb146104a0578063e452bc48146104d9578063f4e4adeb14610504575b600080fd5b34801561012e57600080fd5b5061013761053f565b604051808273ffffffffffffffffffffffffffffffffffffffff1673ffffffffffffffffffffffffffffffffffffffff16815260200191505060405180910390f35b34801561018557600080fd5b5061018e610564565b604051808273ffffffffffffffffffffffffffffffffffffffff1673ffffffffffffffffffffffffffffffffffffffff16815260200191505060405180910390f35b6101d861058d565b005b3480156101e657600080fd5b506101ef6105fc565b6040518082815260200191505060405180910390f35b34801561021157600080fd5b5061021a610640565b604051808381526020018281526020019250505060405180910390f35b34801561024357600080fd5b5061024c6106b0565b6040518082815260200191505060405180910390f35b34801561026e57600080fd5b5061029b6004803603602081101561028557600080fd5b81019080803590602001909291905050506106b6565b6040518082815260200191505060405180910390f35b3480156102bd57600080fd5b506102c66106ef565b005b3480156102d457600080fd5b506102dd6108f5565b6040518082815260200191505060405180910390f35b3480156102ff57600080fd5b506103086108fb565b6040518082815260200191505060405180910390f35b34801561032a57600080fd5b50610333610901565b6040518082815260200191505060405180910390f35b34801561035557600080fd5b5061035e610907565b6040518082815260200191505060405180910390f35b34801561038057600080fd5b5061038961090d565b6040518082815260200191505060405180910390f35b3480156103ab57600080fd5b506103b4610913565b6040518082815260200191505060405180910390f35b3480156103d657600080fd5b506103df610919565b6040518082815260200191505060405180910390f35b34801561040157600080fd5b5061040a61094f565b6040518082815260200191505060405180910390f35b34801561042c57600080fd5b50610435610985565b6040518088815260200187815260200186815260200185815260200184815260200183815260200182815260200197505050505050505060405180910390f35b34801561048157600080fd5b5061048a6109f8565b6040518082815260200191505060405180910390f35b3480156104ac57600080fd5b506104b56109fd565b60405180848152602001838152602001828152602001935050505060405180910390f35b3480156104e557600080fd5b506104ee610a46565b6040518082815260200191505060405180910390f35b34801561051057600080fd5b5061053d6004803603602081101561052757600080fd5b8101908080359060200190929190505050610a4c565b005b6000809054906101000a900473ffffffffffffffffffffffffffffffffffffffff1681565b60008060009054906101000a900473ffffffffffffffffffffffffffffffffffffffff16905090565b6105a234600554610ebb90919063ffffffff16565b6005819055506105bd34600154610ebb90919063ffffffff16565b6001819055507f41431256de3660aa8feaf343d8aebb8aad9bccd4c4449509520e44d6af510d46346040518082815260200191505060405180910390a1565b600061063b60045461062d600c5461061f60035442610f4590919063ffffffff16565b610f8f90919063ffffffff16565b61105c90919063ffffffff16565b905090565b6000806000600161064f6105fc565b01905061067b600c5461066d83600454610f8f90919063ffffffff16565b61105c90919063ffffffff16565b6003540191506106a9610698600583610f8f90919063ffffffff16565b600b54610f4590919063ffffffff16565b9250509091565b60055481565b60006106e86106c361094f565b6106da6012600a0a85610f8f90919063ffffffff16565b61105c90919063ffffffff16565b9050919050565b610706600454600354610ebb90919063ffffffff16565b421015151561077d576040517f08c379a000000000000000000000000000000000000000000000000000000000815260040180806020018281038252601c8152602001807f54686177696e672064656c617920686173206e6f74207061737365640000000081525060200191505060405180910390fd5b60006001541115156107f7576040517f08c379a00000000000000000000000000000000000000000000000000000000081526004018080602001828103825260178152602001807f4e6f2066726f7a656e20657468657220746f207468617700000000000000000081525060200191505060405180910390fd5b426003819055506000600954111561081757600954600881905550610834565b61082d600460085461105c90919063ffffffff16565b6008819055505b61084b600154600254610ebb90919063ffffffff16565b6002819055506002546007819055507f1d80c08fcaae77e805a6ea398f9bf4a855c663cfee51ccdf7144f627019190e76001546040518082815260200191505060405180910390a16000600181905550600a547fa6cc937511bcbe4aa9f9693416797c7d255412e27bda9ef791a45903f7e97d4e600554600654604051808381526020018281526020019250505060405180910390a2600a60008154809291906001019190505550565b60025481565b60015481565b600a5481565b60065481565b60035481565b60075481565b600061094a610939600561092b6105fc565b610f8f90919063ffffffff16565b600b54610f4590919063ffffffff16565b905090565b60006109806064610972610961610919565b600854610f8f90919063ffffffff16565b61105c90919063ffffffff16565b905090565b6000806000806000806000600a54965060035495506109a261094f565b935060006109ae610640565b80975081925050506109e26109c1610919565b6109d48388610f8f90919063ffffffff16565b61105c90919063ffffffff16565b9350600754925060025491505090919293949596565b601281565b6000806000600454600354019250600154915060006009541115610a28576002600954029050610a41565b610a3e600460085461105c90919063ffffffff16565b90505b909192565b60045481565b610a63600454600354610ebb90919063ffffffff16565b42101515610a7857610a736106ef565b610eb8565b610a80610564565b73ffffffffffffffffffffffffffffffffffffffff166323b872dd3330846040518463ffffffff167c0100000000000000000000000000000000000000000000000000000000028152600401808473ffffffffffffffffffffffffffffffffffffffff1673ffffffffffffffffffffffffffffffffffffffff1681526020018373ffffffffffffffffffffffffffffffffffffffff1673ffffffffffffffffffffffffffffffffffffffff1681526020018281526020019350505050602060405180830381600087803b158015610b5657600080fd5b505af1158015610b6a573d6000803e3d6000fd5b505050506040513d6020811015610b8057600080fd5b81019080805190602001909291905050501515610c05576040517f08c379a00000000000000000000000000000000000000000000000000000000081526004018080602001828103825260178152602001807f4e4543207472616e7366657246726f6d206661696c656400000000000000000081525060200191505060405180910390fd5b6000610c10826106b6565b9050610c1a61094f565b600981905550600081111515610c98576040517f08c379a00000000000000000000000000000000000000000000000000000000081526004018080602001828103825260138152602001807f4e6f20657468657220746f20706179206f75740000000000000000000000000081525060200191505060405180910390fd5b8060025410151515610d12576040517f08c379a000000000000000000000000000000000000000000000000000000000815260040180806020018281038252601f8152602001807f4e6f7420656e6f756768206c697175696420657468657220746f2073656e640081525060200191505060405180910390fd5b610d2781600254610f4590919063ffffffff16565b600281905550610d4282600654610ebb90919063ffffffff16565b6006819055503373ffffffffffffffffffffffffffffffffffffffff166108fc829081150290604051600060405180830381858888f19350505050158015610d8e573d6000803e3d6000fd5b50610d97610564565b73ffffffffffffffffffffffffffffffffffffffff16634f37edfd836040518263ffffffff167c010000000000000000000000000000000000000000000000000000000002815260040180828152602001915050602060405180830381600087803b158015610e0557600080fd5b505af1158015610e19573d6000803e3d6000fd5b505050506040513d6020811015610e2f57600080fd5b8101908080519060200190929190505050507f254cba6bcaacd15ef1bba85e06c1d71c8cf7a3e036ad089903ba04bad25aaccc8260095433604051808481526020018381526020018273ffffffffffffffffffffffffffffffffffffffff1673ffffffffffffffffffffffffffffffffffffffff168152602001935050505060405180910390a1505b50565b6000808284019050838110151515610f3b576040517f08c379a000000000000000000000000000000000000000000000000000000000815260040180806020018281038252601b8152602001807f536166654d6174683a206164646974696f6e206f766572666c6f77000000000081525060200191505060405180910390fd5b8091505092915050565b6000610f8783836040805190810160405280601e81526020017f536166654d6174683a207375627472616374696f6e206f766572666c6f7700008152506110a6565b905092915050565b600080831415610fa25760009050611056565b60008284029050828482811515610fb557fe5b04141515611051576040517f08c379a00000000000000000000000000000000000000000000000000000000081526004018080602001828103825260218152602001807f536166654d6174683a206d756c7469706c69636174696f6e206f766572666c6f81526020017f770000000000000000000000000000000000000000000000000000000000000081525060400191505060405180910390fd5b809150505b92915050565b600061109e83836040805190810160405280601a81526020017f536166654d6174683a206469766973696f6e206279207a65726f000000000000815250611168565b905092915050565b60008383111582901515611155576040517f08c379a00000000000000000000000000000000000000000000000000000000081526004018080602001828103825283818151815260200191508051906020019080838360005b8381101561111a5780820151818401526020810190506110ff565b50505050905090810190601f1680156111475780820380516001836020036101000a031916815260200191505b509250505060405180910390fd5b5060008385039050809150509392505050565b600080831182901515611216576040517f08c379a00000000000000000000000000000000000000000000000000000000081526004018080602001828103825283818151815260200191508051906020019080838360005b838110156111db5780820151818401526020810190506111c0565b50505050905090810190601f1680156112085780820380516001836020036101000a031916815260200191505b509250505060405180910390fd5b506000838581151561122457fe5b04905080915050939250505056fea165627a7a72305820959e808f97399b237af926326cd14c67acc231bd32ef1a69efa0f0dd52582d260029",
  "source": "pragma solidity ^0.5.0;\n\nimport \"@openzeppelin/contracts/math/SafeMath.sol\";\n\n// Loosely inspired by Melon Protocol Engine\n\n// This program is free software: you can redistribute it and/or modify\n// it under the terms of the GNU General Public License as published by\n// the Free Software Foundation, either version 3 of the License, or\n// (at your option) any later version.\n\n// This program is distributed in the hope that it will be useful,\n// but WITHOUT ANY WARRANTY; without even the implied warranty of\n// MERCHANTABILITY or FITNESS FOR A PARTICULAR PURPOSE.  See the\n// GNU General Public License for more details.\n\n// You should have received a copy of the GNU General Public License\n// along with this program.  If not, see <http://www.gnu.org/licenses/>.\n\n// TODO: track total burned by period\n\ncontract BurnableToken {\n    function burnAndRetrieve(uint256 _tokensToBurn) public returns (bool success);\n    function transferFrom(address _from, address _to, uint256 _value) public returns (bool success);\n}\n\n/// @notice NEC Auction Engine\ncontract Engine {\n    using SafeMath for uint256;\n\n    event Thaw(uint amount);\n    event Burn(uint amount, uint price, address burner);\n    event FeesPaid(uint amount);\n    event AuctionClose(uint indexed auctionNumber, uint ethPurchased, uint necBurned);\n\n    uint public constant NEC_DECIMALS = 18;\n    address public necAddress;\n\n    uint public frozenEther;\n    uint public liquidEther;\n    uint public lastThaw;\n    uint public thawingDelay;\n    uint public totalEtherConsumed;\n    uint public totalNecBurned;\n    uint public thisAuctionTotalEther;\n\n    uint private necPerEth; // Price at which the previous auction ended\n    uint private lastSuccessfulSale;\n\n    uint public auctionCounter;\n\n    // Params for auction price multiplier - TODO: can make customizable with an admin function\n    uint private startingPercentage = 200;\n    uint private numberSteps = 35;\n\n    constructor(uint _delay, address _token) public {\n        lastThaw = block.timestamp;\n        thawingDelay = _delay;\n        necAddress = _token;\n        necPerEth = uint(1000).mul(10 ** uint(NEC_DECIMALS));\n    }\n\n    function payFeesInEther() external payable {\n        totalEtherConsumed = totalEtherConsumed.add(msg.value);\n        frozenEther = frozenEther.add(msg.value);\n        emit FeesPaid(msg.value);\n    }\n\n    /// @notice Move frozen ether to liquid pool after delay\n    /// @dev Delay only restarts when this function is called\n    function thaw() public {\n        require(\n            block.timestamp >= lastThaw.add(thawingDelay),\n            \"Thawing delay has not passed\"\n        );\n        require(frozenEther > 0, \"No frozen ether to thaw\");\n        lastThaw = block.timestamp;\n        if (lastSuccessfulSale > 0) {\n          necPerEth = lastSuccessfulSale;\n        } else {\n          necPerEth = necPerEth.div(4);\n        }\n        liquidEther = liquidEther.add(frozenEther);\n        thisAuctionTotalEther = liquidEther;\n        emit Thaw(frozenEther);\n        frozenEther = 0;\n\n\n        emit AuctionClose(auctionCounter, totalEtherConsumed, totalNecBurned);\n        auctionCounter++;\n    }\n\n    function getPriceWindow() public view returns (uint window) {\n      window = (now.sub(lastThaw)).mul(numberSteps).div(thawingDelay);\n    }\n\n    function percentageMultiplier() public view returns (uint) {\n        return (startingPercentage.sub(getPriceWindow().mul(5)));\n    }\n\n    /// @return NEC per ETH including premium\n    function enginePrice() public view returns (uint) {\n        return necPerEth.mul(percentageMultiplier()).div(100);\n    }\n\n    function ethPayoutForNecAmount(uint necAmount) public view returns (uint) {\n        return necAmount.mul(10 ** uint(NEC_DECIMALS)).div(enginePrice());\n    }\n\n    /// @notice NEC must be approved first\n    function sellAndBurnNec(uint necAmount) external {\n        if (block.timestamp >= lastThaw.add(thawingDelay)) {\n          thaw();\n          return;\n        }\n        require(\n            necToken().transferFrom(msg.sender, address(this), necAmount),\n            \"NEC transferFrom failed\"\n        );\n        uint ethToSend = ethPayoutForNecAmount(necAmount);\n        lastSuccessfulSale = enginePrice();\n        require(ethToSend > 0, \"No ether to pay out\");\n        require(liquidEther >= ethToSend, \"Not enough liquid ether to send\");\n        liquidEther = liquidEther.sub(ethToSend);\n        totalNecBurned = totalNecBurned.add(necAmount);\n        msg.sender.transfer(ethToSend);\n        necToken().burnAndRetrieve(necAmount);\n        emit Burn(necAmount, lastSuccessfulSale, msg.sender);\n    }\n\n    /// @dev Get NEC token\n    function necToken()\n        public\n        view\n        returns (BurnableToken)\n    {\n        return BurnableToken(necAddress);\n    }\n\n\n/// Useful read functions for UI\n\n    function getNextPriceChange() public view returns (\n        uint newPriceMultiplier,\n        uint nextChangeTimeSeconds )\n    {\n        uint nextWindow = getPriceWindow() + 1;\n        nextChangeTimeSeconds = lastThaw + thawingDelay.mul(nextWindow).div(numberSteps);\n        newPriceMultiplier = (startingPercentage.sub(nextWindow.mul(5)));\n    }\n\n    function getNextAuction() public view returns (\n        uint nextStartTimeSeconds,\n        uint predictedEthAvailable,\n        uint predictedStartingPrice\n        ) {\n        nextStartTimeSeconds = lastThaw + thawingDelay;\n        predictedEthAvailable = frozenEther;\n        if (lastSuccessfulSale > 0) {\n          predictedStartingPrice = lastSuccessfulSale * 2;\n        } else {\n          predictedStartingPrice = necPerEth.div(4);\n        }\n    }\n\n    function getCurrentAuction() public view returns (\n        uint auctionNumber,\n        uint startTimeSeconds,\n        uint nextPriceChangeSeconds,\n        uint currentPrice,\n        uint nextPrice,\n        uint initialEthAvailable,\n        uint remainingEthAvailable\n        ) {\n        auctionNumber = auctionCounter;\n        startTimeSeconds = lastThaw;\n        currentPrice = enginePrice();\n        uint nextPriceMultiplier;\n        (nextPriceMultiplier, nextPriceChangeSeconds) = getNextPriceChange();\n        nextPrice = currentPrice.mul(nextPriceMultiplier).div(percentageMultiplier());\n        initialEthAvailable = thisAuctionTotalEther;\n        remainingEthAvailable = liquidEther;\n    }\n\n\n}\n",
  "sourcePath": "/Users/willharborne/Desktop/EFX/repos/nec-engine/contracts/Engine.sol",
  "compiler": {
    "name": "solc",
    "version": "0.5.0+commit.1d4f565a.Emscripten.clang"
  },
  "schemaVersion": "3.0.9",
  "updatedAt": "2020-01-28T10:05:46.641Z",
  "devdoc": {
    "methods": {
      "enginePrice()": {
        "return": "NEC per ETH including premium"
      },
      "necToken()": {
        "details": "Get NEC token"
      },
      "thaw()": {
        "details": "Delay only restarts when this function is called"
      }
    }
  },
  "userdoc": {
    "methods": {
      "getNextPriceChange()": {
        "notice": "Useful read functions for UI"
      },
      "sellAndBurnNec(uint256)": {
        "notice": "NEC must be approved first"
      },
      "thaw()": {
        "notice": "Move frozen ether to liquid pool after delay"
      }
    },
    "notice": "NEC Auction Engine"
  }
}