{
  "contractName": "Engine",
  "abi": [
    {
      "constant": true,
      "inputs": [],
      "name": "necAddress",
      "outputs": [
        {
          "name": "",
          "type": "address"
        }
      ],
      "payable": false,
      "stateMutability": "view",
      "type": "function"
    },
    {
      "constant": true,
      "inputs": [],
      "name": "totalEtherConsumed",
      "outputs": [
        {
          "name": "",
          "type": "uint256"
        }
      ],
      "payable": false,
      "stateMutability": "view",
      "type": "function"
    },
    {
      "constant": true,
      "inputs": [],
      "name": "liquidEther",
      "outputs": [
        {
          "name": "",
          "type": "uint256"
        }
      ],
      "payable": false,
      "stateMutability": "view",
      "type": "function"
    },
    {
      "constant": true,
      "inputs": [],
      "name": "frozenEther",
      "outputs": [
        {
          "name": "",
          "type": "uint256"
        }
      ],
      "payable": false,
      "stateMutability": "view",
      "type": "function"
    },
    {
      "constant": true,
      "inputs": [],
      "name": "auctionCounter",
      "outputs": [
        {
          "name": "",
          "type": "uint256"
        }
      ],
      "payable": false,
      "stateMutability": "view",
      "type": "function"
    },
    {
      "constant": true,
      "inputs": [],
      "name": "totalNecBurned",
      "outputs": [
        {
          "name": "",
          "type": "uint256"
        }
      ],
      "payable": false,
      "stateMutability": "view",
      "type": "function"
    },
    {
      "constant": true,
      "inputs": [],
      "name": "lastThaw",
      "outputs": [
        {
          "name": "",
          "type": "uint256"
        }
      ],
      "payable": false,
      "stateMutability": "view",
      "type": "function"
    },
    {
      "constant": true,
      "inputs": [],
      "name": "NEC_DECIMALS",
      "outputs": [
        {
          "name": "",
          "type": "uint256"
        }
      ],
      "payable": false,
      "stateMutability": "view",
      "type": "function"
    },
    {
      "inputs": [
        {
          "name": "_delay",
          "type": "uint256"
        },
        {
          "name": "_token",
          "type": "address"
        }
      ],
      "payable": false,
      "stateMutability": "view",
      "type": "function",
      "constant": true,
      "name": "thawingDelay",
      "outputs": [
        {
          "name": "",
          "type": "uint256"
        }
      ]
    },
    {
      "anonymous": false,
      "inputs": [
        {
          "indexed": false,
          "name": "_delay",
          "type": "uint256"
        },
        {
          "name": "_token",
          "type": "address"
        }
      ],
      "name": "Thaw",
      "type": "constructor",
      "payable": false,
      "stateMutability": "nonpayable"
    },
    {
      "anonymous": false,
      "inputs": [
        {
          "indexed": false,
          "name": "amount",
          "type": "uint256"
        },
        {
          "indexed": false,
          "name": "price",
          "type": "uint256"
        },
        {
          "indexed": false,
          "name": "burner",
          "type": "address"
        }
      ],
      "name": "Thaw",
      "type": "event"
    },
    {
      "anonymous": false,
      "inputs": [
        {
          "indexed": false,
          "name": "amount",
          "type": "uint256"
        },
        {
          "indexed": false,
          "name": "price",
          "type": "uint256"
        },
        {
          "indexed": false,
          "name": "burner",
          "type": "address"
        }
      ],
      "name": "Burn",
      "type": "event"
    },
    {
      "constant": false,
      "inputs": [
        {
          "indexed": false,
          "name": "amount",
          "type": "uint256"
        }
      ],
      "name": "FeesPaid",
      "outputs": [],
      "payable": true,
      "stateMutability": "payable",
      "type": "event",
      "anonymous": false
    },
    {
      "constant": false,
      "inputs": [
        {
          "indexed": true,
          "name": "auctionNumber",
          "type": "uint256"
        },
        {
          "indexed": false,
          "name": "ethPurchased",
          "type": "uint256"
        },
        {
          "indexed": false,
          "name": "necBurned",
          "type": "uint256"
        }
      ],
      "name": "AuctionClose",
      "outputs": [],
      "payable": false,
      "stateMutability": "nonpayable",
      "type": "event",
      "anonymous": false
    },
    {
      "constant": false,
      "inputs": [],
      "name": "payFeesInEther",
      "outputs": [
        {
          "name": "window",
          "type": "uint256"
        }
      ],
      "payable": true,
      "stateMutability": "payable",
      "type": "function"
    },
    {
      "constant": false,
      "inputs": [],
      "name": "thaw",
      "outputs": [
        {
          "name": "",
          "type": "uint256"
        }
      ],
      "payable": false,
      "stateMutability": "nonpayable",
      "type": "function"
    },
    {
      "constant": true,
      "inputs": [],
      "name": "getPriceWindow",
      "outputs": [
        {
          "name": "window",
          "type": "uint256"
        }
      ],
      "payable": false,
      "stateMutability": "view",
      "type": "function"
    },
    {
      "constant": true,
      "inputs": [
        {
          "name": "necAmount",
          "type": "uint256"
        }
      ],
      "name": "percentageMultiplier",
      "outputs": [
        {
          "name": "",
          "type": "uint256"
        }
      ],
      "payable": false,
      "stateMutability": "view",
      "type": "function"
    },
    {
      "constant": true,
      "inputs": [
        {
          "name": "necAmount",
          "type": "uint256"
        }
      ],
      "name": "enginePrice",
      "outputs": [
        {
          "name": "",
          "type": "uint256"
        }
      ],
      "payable": false,
      "stateMutability": "view",
      "type": "function"
    },
    {
      "constant": true,
      "inputs": [
        {
          "name": "necAmount",
          "type": "uint256"
        }
      ],
      "name": "ethPayoutForNecAmount",
      "outputs": [
        {
          "name": "",
          "type": "uint256"
        }
      ],
      "payable": false,
      "stateMutability": "view",
      "type": "function"
    },
    {
      "constant": false,
      "inputs": [
        {
          "name": "necAmount",
          "type": "uint256"
        }
      ],
      "name": "sellAndBurnNec",
      "outputs": [
        {
          "name": "newPrice",
          "type": "uint256"
        },
        {
          "name": "nextChangeTimeSeconds",
          "type": "uint256"
        }
      ],
      "payable": false,
      "stateMutability": "nonpayable",
      "type": "function"
    },
    {
      "constant": true,
      "inputs": [],
      "name": "necToken",
      "outputs": [
        {
          "name": "",
          "type": "address"
        },
        {
          "name": "predictedEthAvailable",
          "type": "uint256"
        },
        {
          "name": "predictedStartingPrice",
          "type": "uint256"
        }
      ],
      "payable": false,
      "stateMutability": "view",
      "type": "function"
    },
    {
      "constant": true,
      "inputs": [
        {
          "name": "auctionNumber",
          "type": "uint256"
        }
      ],
      "name": "getNextPriceChange",
      "outputs": [
        {
          "name": "newPrice",
          "type": "uint256"
        },
        {
          "name": "nextChangeTimeSeconds",
          "type": "uint256"
        }
      ],
      "payable": false,
      "stateMutability": "view",
      "type": "function"
    },
    {
      "constant": true,
      "inputs": [
        {
          "name": "auctionNumber",
          "type": "uint256"
        }
      ],
      "name": "getNextAuction",
      "outputs": [
        {
          "name": "nextStartTimeSeconds",
          "type": "uint256"
        },
        {
          "name": "predictedEthAvailable",
          "type": "uint256"
        },
        {
          "name": "predictedStartingPrice",
          "type": "uint256"
        }
      ],
      "payable": false,
      "stateMutability": "view",
      "type": "function"
    }
  ],
  "bytecode": "0x608060405260c8600a556023600b5534801561001a57600080fd5b506040516040806111c98339810180604052604081101561003a57600080fd5b8101908080519060200190929190805190602001909291905050504260038190555081600481905550806000806101000a81548173ffffffffffffffffffffffffffffffffffffffff021916908373ffffffffffffffffffffffffffffffffffffffff1602179055506100c96012600a0a6103e86100d664010000000002610e8b179091906401000000009004565b60078190555050506101a3565b6000808314156100e9576000905061019d565b600082840290508284828115156100fc57fe5b04141515610198576040517f08c379a00000000000000000000000000000000000000000000000000000000081526004018080602001828103825260218152602001807f536166654d6174683a206d756c7469706c69636174696f6e206f766572666c6f81526020017f770000000000000000000000000000000000000000000000000000000000000081525060400191505060405180910390fd5b809150505b92915050565b611017806101b26000396000f3fe608060405260043610610107576000357c0100000000000000000000000000000000000000000000000000000000900463ffffffff1680631bb7f6861461010c57806321b3611e146101635780632e355e5d146101ba57806332bc1549146101c457806336b53a30146101ef57806337e1dfcc14610221578063469fb2ef1461024c5780635920375c1461029b5780637eced8dc146102b2578063844541f1146102dd578063a7e7664414610308578063ab32b03c14610333578063ab69c5be1461035e578063c6d9f12314610389578063d22741b8146103b4578063e1dc7830146103df578063e2516bbb1461040a578063e452bc4814610443578063f4e4adeb1461046e575b600080fd5b34801561011857600080fd5b506101216104a9565b604051808273ffffffffffffffffffffffffffffffffffffffff1673ffffffffffffffffffffffffffffffffffffffff16815260200191505060405180910390f35b34801561016f57600080fd5b506101786104ce565b604051808273ffffffffffffffffffffffffffffffffffffffff1673ffffffffffffffffffffffffffffffffffffffff16815260200191505060405180910390f35b6101c26104f7565b005b3480156101d057600080fd5b506101d9610566565b6040518082815260200191505060405180910390f35b3480156101fb57600080fd5b506102046105aa565b604051808381526020018281526020019250505060405180910390f35b34801561022d57600080fd5b5061023661061a565b6040518082815260200191505060405180910390f35b34801561025857600080fd5b506102856004803603602081101561026f57600080fd5b8101908080359060200190929190505050610620565b6040518082815260200191505060405180910390f35b3480156102a757600080fd5b506102b0610659565b005b3480156102be57600080fd5b506102c7610856565b6040518082815260200191505060405180910390f35b3480156102e957600080fd5b506102f261085c565b6040518082815260200191505060405180910390f35b34801561031457600080fd5b5061031d610862565b6040518082815260200191505060405180910390f35b34801561033f57600080fd5b50610348610868565b6040518082815260200191505060405180910390f35b34801561036a57600080fd5b5061037361086e565b6040518082815260200191505060405180910390f35b34801561039557600080fd5b5061039e610874565b6040518082815260200191505060405180910390f35b3480156103c057600080fd5b506103c96108aa565b6040518082815260200191505060405180910390f35b3480156103eb57600080fd5b506103f46108e0565b6040518082815260200191505060405180910390f35b34801561041657600080fd5b5061041f6108e5565b60405180848152602001838152602001828152602001935050505060405180910390f35b34801561044f57600080fd5b5061045861092e565b6040518082815260200191505060405180910390f35b34801561047a57600080fd5b506104a76004803603602081101561049157600080fd5b8101908080359060200190929190505050610934565b005b6000809054906101000a900473ffffffffffffffffffffffffffffffffffffffff1681565b60008060009054906101000a900473ffffffffffffffffffffffffffffffffffffffff16905090565b61050c34600554610d7690919063ffffffff16565b60058190555061052734600154610d7690919063ffffffff16565b6001819055507f41431256de3660aa8feaf343d8aebb8aad9bccd4c4449509520e44d6af510d46346040518082815260200191505060405180910390a1565b60006105a5600454610597600b5461058960035442610e0090919063ffffffff16565b610e8b90919063ffffffff16565b610f5890919063ffffffff16565b905090565b600080600060016105b9610566565b0190506105e5600b546105d783600454610e8b90919063ffffffff16565b610f5890919063ffffffff16565b600354019150610613610602600583610e8b90919063ffffffff16565b600a54610e0090919063ffffffff16565b9250509091565b60055481565b600061065261062d6108aa565b6106446012600a0a85610e8b90919063ffffffff16565b610f5890919063ffffffff16565b9050919050565b610670600454600354610d7690919063ffffffff16565b42101515156106e7576040517f08c379a000000000000000000000000000000000000000000000000000000000815260040180806020018281038252601c8152602001807f54686177696e672064656c617920686173206e6f74207061737365640000000081525060200191505060405180910390fd5b6000600154111515610761576040517f08c379a00000000000000000000000000000000000000000000000000000000081526004018080602001828103825260178152602001807f4e6f2066726f7a656e20657468657220746f207468617700000000000000000081525060200191505060405180910390fd5b42600381905550600060085411156107815760085460078190555061079e565b6107976004600754610f5890919063ffffffff16565b6007819055505b6107b5600154600254610d7690919063ffffffff16565b6002819055507f1d80c08fcaae77e805a6ea398f9bf4a855c663cfee51ccdf7144f627019190e76001546040518082815260200191505060405180910390a160006001819055506009547fa6cc937511bcbe4aa9f9693416797c7d255412e27bda9ef791a45903f7e97d4e600554600654604051808381526020018281526020019250505060405180910390a2600960008154809291906001019190505550565b60025481565b60015481565b60095481565b60065481565b60035481565b60006108a56108946005610886610566565b610e8b90919063ffffffff16565b600a54610e0090919063ffffffff16565b905090565b60006108db60646108cd6108bc610874565b600754610e8b90919063ffffffff16565b610f5890919063ffffffff16565b905090565b601281565b6000806000600454600354019250600154915060006008541115610910576002600854029050610929565b6109266004600754610f5890919063ffffffff16565b90505b909192565b60045481565b61093c6104ce565b73ffffffffffffffffffffffffffffffffffffffff166323b872dd3330846040518463ffffffff167c0100000000000000000000000000000000000000000000000000000000028152600401808473ffffffffffffffffffffffffffffffffffffffff1673ffffffffffffffffffffffffffffffffffffffff1681526020018373ffffffffffffffffffffffffffffffffffffffff1673ffffffffffffffffffffffffffffffffffffffff1681526020018281526020019350505050602060405180830381600087803b158015610a1257600080fd5b505af1158015610a26573d6000803e3d6000fd5b505050506040513d6020811015610a3c57600080fd5b81019080805190602001909291905050501515610ac1576040517f08c379a00000000000000000000000000000000000000000000000000000000081526004018080602001828103825260178152602001807f4e4543207472616e7366657246726f6d206661696c656400000000000000000081525060200191505060405180910390fd5b6000610acc82610620565b9050610ad66108aa565b600881905550600081111515610b54576040517f08c379a00000000000000000000000000000000000000000000000000000000081526004018080602001828103825260138152602001807f4e6f20657468657220746f20706179206f75740000000000000000000000000081525060200191505060405180910390fd5b8060025410151515610bce576040517f08c379a000000000000000000000000000000000000000000000000000000000815260040180806020018281038252601f8152602001807f4e6f7420656e6f756768206c697175696420657468657220746f2073656e640081525060200191505060405180910390fd5b610be381600254610e0090919063ffffffff16565b600281905550610bfe82600654610d7690919063ffffffff16565b6006819055503373ffffffffffffffffffffffffffffffffffffffff166108fc829081150290604051600060405180830381858888f19350505050158015610c4a573d6000803e3d6000fd5b50610c536104ce565b73ffffffffffffffffffffffffffffffffffffffff16634f37edfd836040518263ffffffff167c010000000000000000000000000000000000000000000000000000000002815260040180828152602001915050602060405180830381600087803b158015610cc157600080fd5b505af1158015610cd5573d6000803e3d6000fd5b505050506040513d6020811015610ceb57600080fd5b8101908080519060200190929190505050507f254cba6bcaacd15ef1bba85e06c1d71c8cf7a3e036ad089903ba04bad25aaccc8260085433604051808481526020018381526020018273ffffffffffffffffffffffffffffffffffffffff1673ffffffffffffffffffffffffffffffffffffffff168152602001935050505060405180910390a15050565b6000808284019050838110151515610df6576040517f08c379a000000000000000000000000000000000000000000000000000000000815260040180806020018281038252601b8152602001807f536166654d6174683a206164646974696f6e206f766572666c6f77000000000081525060200191505060405180910390fd5b8091505092915050565b6000828211151515610e7a576040517f08c379a000000000000000000000000000000000000000000000000000000000815260040180806020018281038252601e8152602001807f536166654d6174683a207375627472616374696f6e206f766572666c6f77000081525060200191505060405180910390fd5b600082840390508091505092915050565b600080831415610e9e5760009050610f52565b60008284029050828482811515610eb157fe5b04141515610f4d576040517f08c379a00000000000000000000000000000000000000000000000000000000081526004018080602001828103825260218152602001807f536166654d6174683a206d756c7469706c69636174696f6e206f766572666c6f81526020017f770000000000000000000000000000000000000000000000000000000000000081525060400191505060405180910390fd5b809150505b92915050565b60008082111515610fd1576040517f08c379a000000000000000000000000000000000000000000000000000000000815260040180806020018281038252601a8152602001807f536166654d6174683a206469766973696f6e206279207a65726f00000000000081525060200191505060405180910390fd5b60008284811515610fde57fe5b049050809150509291505056fea165627a7a72305820ab8f07912d11d1fa88daee5405d8f816a8ec5c05f7e1e4ac6fbce3eda083de060029",
  "source": "pragma solidity ^0.5.0;\n\nimport \"@openzeppelin/contracts/math/SafeMath.sol\";\n\n// Loosely inspired by Melon Protocol Engine\n\n// This program is free software: you can redistribute it and/or modify\n// it under the terms of the GNU General Public License as published by\n// the Free Software Foundation, either version 3 of the License, or\n// (at your option) any later version.\n\n// This program is distributed in the hope that it will be useful,\n// but WITHOUT ANY WARRANTY; without even the implied warranty of\n// MERCHANTABILITY or FITNESS FOR A PARTICULAR PURPOSE.  See the\n// GNU General Public License for more details.\n\n// You should have received a copy of the GNU General Public License\n// along with this program.  If not, see <http://www.gnu.org/licenses/>.\n\n// TODO: track total burned by period\n// TODO: track total ether consumed over time\n\n\ncontract BurnableToken {\n    function burnAndRetrieve(uint256 _tokensToBurn) public returns (bool success);\n    function transferFrom(address _from, address _to, uint256 _value) public returns (bool success);\n}\n\n/// @notice NEC Auction Engine\ncontract Engine {\n    using SafeMath for uint256;\n\n    event Thaw(uint amount);\n    event Burn(uint amount, uint price, address burner);\n    event FeesPaid(uint amount);\n    event AuctionClose(uint indexed auctionNumber, uint ethPurchased, uint necBurned);\n\n    uint public constant NEC_DECIMALS = 18;\n    address public necAddress;\n\n    uint public frozenEther;\n    uint public liquidEther;\n    uint public lastThaw;\n    uint public thawingDelay;\n    uint public totalEtherConsumed;\n    uint public totalNecBurned;\n\n    uint private necPerEth; // Price at which the previous auction ended\n    uint private lastSuccessfulSale;\n\n    uint public auctionCounter;\n\n    // Params for auction price multiplier - TODO: can make customizable with an admin function\n    uint private startingPercentage = 200;\n    uint private numberSteps = 35;\n\n    constructor(uint _delay, address _token) public {\n        lastThaw = block.timestamp;\n        thawingDelay = _delay;\n        necAddress = _token;\n        necPerEth = uint(1000).mul(10 ** uint(NEC_DECIMALS));\n    }\n\n    function payFeesInEther() external payable {\n        totalEtherConsumed = totalEtherConsumed.add(msg.value);\n        frozenEther = frozenEther.add(msg.value);\n        emit FeesPaid(msg.value);\n    }\n\n    /// @notice Move frozen ether to liquid pool after delay\n    /// @dev Delay only restarts when this function is called\n    function thaw() external {\n        require(\n            block.timestamp >= lastThaw.add(thawingDelay),\n            \"Thawing delay has not passed\"\n        );\n        require(frozenEther > 0, \"No frozen ether to thaw\");\n        lastThaw = block.timestamp;\n        if (lastSuccessfulSale > 0) {\n          necPerEth = lastSuccessfulSale;\n        } else {\n          necPerEth = necPerEth.div(4);\n        }\n        liquidEther = liquidEther.add(frozenEther);\n        emit Thaw(frozenEther);\n        frozenEther = 0;\n\n        emit AuctionClose(auctionCounter, totalEtherConsumed, totalNecBurned);\n        auctionCounter++;\n    }\n\n    function getPriceWindow() public view returns (uint window) {\n      window = (now.sub(lastThaw)).mul(numberSteps).div(thawingDelay);\n    }\n\n    function percentageMultiplier() public view returns (uint) {\n        return (startingPercentage.sub(getPriceWindow().mul(5)));\n    }\n\n    /// @return NEC per ETH including premium\n    function enginePrice() public view returns (uint) {\n        return necPerEth.mul(percentageMultiplier()).div(100);\n    }\n\n    function ethPayoutForNecAmount(uint necAmount) public view returns (uint) {\n        return necAmount.mul(10 ** uint(NEC_DECIMALS)).div(enginePrice());\n    }\n\n    /// @notice NEC must be approved first\n    function sellAndBurnNec(uint necAmount) external {\n        require(\n            necToken().transferFrom(msg.sender, address(this), necAmount),\n            \"NEC transferFrom failed\"\n        );\n        uint ethToSend = ethPayoutForNecAmount(necAmount);\n        lastSuccessfulSale = enginePrice();\n        require(ethToSend > 0, \"No ether to pay out\");\n        require(liquidEther >= ethToSend, \"Not enough liquid ether to send\");\n        liquidEther = liquidEther.sub(ethToSend);\n        totalNecBurned = totalNecBurned.add(necAmount);\n        msg.sender.transfer(ethToSend);\n        necToken().burnAndRetrieve(necAmount);\n        emit Burn(necAmount, lastSuccessfulSale, msg.sender);\n    }\n\n    /// @dev Get NEC token\n    function necToken()\n        public\n        view\n        returns (BurnableToken)\n    {\n        return BurnableToken(necAddress);\n    }\n\n\n/// Useful read functions for UI\n\n    function getNextPriceChange() public view returns (\n        uint newPrice,\n        uint nextChangeTimeSeconds )\n    {\n        uint nextWindow = getPriceWindow() + 1;\n        nextChangeTimeSeconds = lastThaw + thawingDelay.mul(nextWindow).div(numberSteps);\n        newPrice = (startingPercentage.sub(nextWindow.mul(5)));\n    }\n\n    function getNextAuction() public view returns (\n        uint nextStartTimeSeconds,\n        uint predictedEthAvailable,\n        uint predictedStartingPrice\n        ) {\n        nextStartTimeSeconds = lastThaw + thawingDelay;\n        predictedEthAvailable = frozenEther;\n        if (lastSuccessfulSale > 0) {\n          predictedStartingPrice = lastSuccessfulSale * 2;\n        } else {\n          predictedStartingPrice = necPerEth.div(4);\n        }\n    }\n\n\n}\n",
  "sourcePath": "/Users/willharborne/Desktop/EFX/repos/nec-engine/contracts/Engine.sol",
  "compiler": {
    "name": "solc",
    "version": "0.5.0+commit.1d4f565a.Emscripten.clang"
  },
  "schemaVersion": "3.0.9",
  "updatedAt": "2019-11-12T23:43:11.743Z",
  "devdoc": {
    "methods": {
      "enginePrice()": {
        "return": "NEC per ETH including premium"
      },
      "necToken()": {
        "details": "Get NEC token"
      },
      "thaw()": {
        "details": "Delay only restarts when this function is called"
      }
    }
  },
  "userdoc": {
    "methods": {
      "getNextPriceChange()": {
        "notice": "Useful read functions for UI"
      },
      "sellAndBurnNec(uint256)": {
        "notice": "NEC must be approved first"
      },
      "thaw()": {
        "notice": "Move frozen ether to liquid pool after delay"
      }
    },
    "notice": "NEC Auction Engine"
  }
}