{
  "contractName": "Engine",
  "abi": [
    {
      "constant": true,
      "inputs": [],
      "name": "necAddress",
      "outputs": [
        {
          "name": "",
          "type": "address"
        }
      ],
      "payable": false,
      "stateMutability": "view",
      "type": "function"
    },
    {
      "constant": true,
      "inputs": [],
      "name": "totalEtherConsumed",
      "outputs": [
        {
          "name": "",
          "type": "uint256"
        }
      ],
      "payable": false,
      "stateMutability": "view",
      "type": "function"
    },
    {
      "constant": true,
      "inputs": [],
      "name": "liquidEther",
      "outputs": [
        {
          "name": "",
          "type": "uint256"
        }
      ],
      "payable": false,
      "stateMutability": "view",
      "type": "function"
    },
    {
      "constant": true,
      "inputs": [],
      "name": "frozenEther",
      "outputs": [
        {
          "name": "",
          "type": "uint256"
        }
      ],
      "payable": false,
      "stateMutability": "view",
      "type": "function"
    },
    {
      "constant": true,
      "inputs": [],
      "name": "totalNecBurned",
      "outputs": [
        {
          "name": "",
          "type": "uint256"
        }
      ],
      "payable": false,
      "stateMutability": "view",
      "type": "function"
    },
    {
      "constant": true,
      "inputs": [],
      "name": "lastThaw",
      "outputs": [
        {
          "name": "",
          "type": "uint256"
        }
      ],
      "payable": false,
      "stateMutability": "view",
      "type": "function"
    },
    {
      "constant": true,
      "inputs": [],
      "name": "NEC_DECIMALS",
      "outputs": [
        {
          "name": "",
          "type": "uint256"
        }
      ],
      "payable": false,
      "stateMutability": "view",
      "type": "function"
    },
    {
      "constant": true,
      "inputs": [],
      "name": "thawingDelay",
      "outputs": [
        {
          "name": "",
          "type": "uint256"
        }
      ],
      "payable": false,
      "stateMutability": "view",
      "type": "function"
    },
    {
      "inputs": [
        {
          "name": "_delay",
          "type": "uint256"
        },
        {
          "name": "_token",
          "type": "address"
        }
      ],
      "payable": false,
      "stateMutability": "nonpayable",
      "type": "constructor"
    },
    {
      "anonymous": false,
      "inputs": [
        {
          "indexed": false,
          "name": "amount",
          "type": "uint256"
        }
      ],
      "name": "Thaw",
      "type": "event"
    },
    {
      "anonymous": false,
      "inputs": [
        {
          "indexed": false,
          "name": "amount",
          "type": "uint256"
        },
        {
          "indexed": false,
          "name": "price",
          "type": "uint256"
        }
      ],
      "name": "Burn",
      "type": "event"
    },
    {
      "anonymous": false,
      "inputs": [
        {
          "indexed": false,
          "name": "amount",
          "type": "uint256"
        }
      ],
      "name": "FeesPaid",
      "type": "event"
    },
    {
      "constant": false,
      "inputs": [],
      "name": "payFeesInEther",
      "outputs": [],
      "payable": true,
      "stateMutability": "payable",
      "type": "function"
    },
    {
      "constant": false,
      "inputs": [],
      "name": "thaw",
      "outputs": [],
      "payable": false,
      "stateMutability": "nonpayable",
      "type": "function"
    },
    {
      "constant": true,
      "inputs": [],
      "name": "percentageMultiplier",
      "outputs": [
        {
          "name": "",
          "type": "uint256"
        }
      ],
      "payable": false,
      "stateMutability": "view",
      "type": "function"
    },
    {
      "constant": true,
      "inputs": [],
      "name": "enginePrice",
      "outputs": [
        {
          "name": "",
          "type": "uint256"
        }
      ],
      "payable": false,
      "stateMutability": "view",
      "type": "function"
    },
    {
      "constant": true,
      "inputs": [
        {
          "name": "necAmount",
          "type": "uint256"
        }
      ],
      "name": "ethPayoutForNecAmount",
      "outputs": [
        {
          "name": "",
          "type": "uint256"
        }
      ],
      "payable": false,
      "stateMutability": "view",
      "type": "function"
    },
    {
      "constant": false,
      "inputs": [
        {
          "name": "necAmount",
          "type": "uint256"
        }
      ],
      "name": "sellAndBurnNec",
      "outputs": [],
      "payable": false,
      "stateMutability": "nonpayable",
      "type": "function"
    },
    {
      "constant": true,
      "inputs": [],
      "name": "necToken",
      "outputs": [
        {
          "name": "",
          "type": "address"
        }
      ],
      "payable": false,
      "stateMutability": "view",
      "type": "function"
    },
    {
      "constant": true,
      "inputs": [],
      "name": "getNextPriceChange",
      "outputs": [
        {
          "name": "newPrice",
          "type": "uint256"
        },
        {
          "name": "nextChangeTimeSeconds",
          "type": "uint256"
        }
      ],
      "payable": false,
      "stateMutability": "view",
      "type": "function"
    },
    {
      "constant": true,
      "inputs": [],
      "name": "getNextAuction",
      "outputs": [
        {
          "name": "nextStartTimeSeconds",
          "type": "uint256"
        },
        {
          "name": "ethAvailable",
          "type": "uint256"
        },
        {
          "name": "startingPrice",
          "type": "uint256"
        }
      ],
      "payable": false,
      "stateMutability": "view",
      "type": "function"
    },
    {
      "constant": true,
      "inputs": [
        {
          "name": "auctionNumber",
          "type": "uint256"
        }
      ],
      "name": "getEthAuctioned",
      "outputs": [
        {
          "name": "",
          "type": "uint256"
        }
      ],
      "payable": false,
      "stateMutability": "view",
      "type": "function"
    },
    {
      "constant": true,
      "inputs": [
        {
          "name": "auctionNumber",
          "type": "uint256"
        }
      ],
      "name": "getNecBurned",
      "outputs": [
        {
          "name": "",
          "type": "uint256"
        }
      ],
      "payable": false,
      "stateMutability": "view",
      "type": "function"
    }
  ],
  "bytecode": "0x608060405234801561001057600080fd5b50604051604080610fd88339810180604052604081101561003057600080fd5b8101908080519060200190929190805190602001909291905050504260038190555081600481905550806000806101000a81548173ffffffffffffffffffffffffffffffffffffffff021916908373ffffffffffffffffffffffffffffffffffffffff1602179055506103e86007819055505050610f25806100b36000396000f3fe608060405260043610610107576000357c0100000000000000000000000000000000000000000000000000000000900463ffffffff1680631bb7f6861461010c57806321b3611e146101635780632e355e5d146101ba57806336b53a30146101c457806337e1dfcc146101f6578063469fb2ef146102215780635920375c1461027057806377c195b1146102875780637eced8dc146102d6578063844541f114610301578063ab32b03c1461032c578063ab69c5be14610357578063be33d5bd14610382578063c6d9f123146103d1578063d22741b8146103fc578063e1dc783014610427578063e2516bbb14610452578063e452bc481461048b578063f4e4adeb146104b6575b600080fd5b34801561011857600080fd5b506101216104f1565b604051808273ffffffffffffffffffffffffffffffffffffffff1673ffffffffffffffffffffffffffffffffffffffff16815260200191505060405180910390f35b34801561016f57600080fd5b50610178610516565b604051808273ffffffffffffffffffffffffffffffffffffffff1673ffffffffffffffffffffffffffffffffffffffff16815260200191505060405180910390f35b6101c261053f565b005b3480156101d057600080fd5b506101d96105ae565b604051808381526020018281526020019250505060405180910390f35b34801561020257600080fd5b5061020b6105bd565b6040518082815260200191505060405180910390f35b34801561022d57600080fd5b5061025a6004803603602081101561024457600080fd5b81019080803590602001909291905050506105c3565b6040518082815260200191505060405180910390f35b34801561027c57600080fd5b506102856105fc565b005b34801561029357600080fd5b506102c0600480360360208110156102aa57600080fd5b81019080803590602001909291905050506107a1565b6040518082815260200191505060405180910390f35b3480156102e257600080fd5b506102eb6107a8565b6040518082815260200191505060405180910390f35b34801561030d57600080fd5b506103166107ae565b6040518082815260200191505060405180910390f35b34801561033857600080fd5b506103416107b4565b6040518082815260200191505060405180910390f35b34801561036357600080fd5b5061036c6107ba565b6040518082815260200191505060405180910390f35b34801561038e57600080fd5b506103bb600480360360208110156103a557600080fd5b81019080803590602001909291905050506107c0565b6040518082815260200191505060405180910390f35b3480156103dd57600080fd5b506103e66107c7565b6040518082815260200191505060405180910390f35b34801561040857600080fd5b5061041161082b565b6040518082815260200191505060405180910390f35b34801561043357600080fd5b5061043c610861565b6040518082815260200191505060405180910390f35b34801561045e57600080fd5b50610467610866565b60405180848152602001838152602001828152602001935050505060405180910390f35b34801561049757600080fd5b506104a0610870565b6040518082815260200191505060405180910390f35b3480156104c257600080fd5b506104ef600480360360208110156104d957600080fd5b8101908080359060200190929190505050610876565b005b6000809054906101000a900473ffffffffffffffffffffffffffffffffffffffff1681565b60008060009054906101000a900473ffffffffffffffffffffffffffffffffffffffff16905090565b61055434600554610c8490919063ffffffff16565b60058190555061056f34600154610c8490919063ffffffff16565b6001819055507f41431256de3660aa8feaf343d8aebb8aad9bccd4c4449509520e44d6af510d46346040518082815260200191505060405180910390a1565b60008060009150600090509091565b60055481565b60006105f56012600a0a6105e76105d861082b565b85610d0e90919063ffffffff16565b610ddb90919063ffffffff16565b9050919050565b610613600454600354610c8490919063ffffffff16565b421015151561068a576040517f08c379a000000000000000000000000000000000000000000000000000000000815260040180806020018281038252601c8152602001807f54686177696e672064656c617920686173206e6f74207061737365640000000081525060200191505060405180910390fd5b6000600154111515610704576040517f08c379a00000000000000000000000000000000000000000000000000000000081526004018080602001828103825260178152602001807f4e6f2066726f7a656e20657468657220746f207468617700000000000000000081525060200191505060405180910390fd5b426003819055506000600854111561072457600854600781905550610741565b61073a6004600754610ddb90919063ffffffff16565b6007819055505b610758600154600254610c8490919063ffffffff16565b6002819055507f1d80c08fcaae77e805a6ea398f9bf4a855c663cfee51ccdf7144f627019190e76001546040518082815260200191505060405180910390a16000600181905550565b6000919050565b60025481565b60015481565b60065481565b60035481565b6000919050565b6000806108066004546107f860236107ea60035442610e6e90919063ffffffff16565b610d0e90919063ffffffff16565b610ddb90919063ffffffff16565b9050600060c89050610822600583610d0e90919063ffffffff16565b81039250505090565b600061085c606461084e61083d6107c7565b600754610d0e90919063ffffffff16565b610ddb90919063ffffffff16565b905090565b601281565b6000806000909192565b60045481565b61087e610516565b73ffffffffffffffffffffffffffffffffffffffff166323b872dd3330846040518463ffffffff167c0100000000000000000000000000000000000000000000000000000000028152600401808473ffffffffffffffffffffffffffffffffffffffff1673ffffffffffffffffffffffffffffffffffffffff1681526020018373ffffffffffffffffffffffffffffffffffffffff1673ffffffffffffffffffffffffffffffffffffffff1681526020018281526020019350505050602060405180830381600087803b15801561095457600080fd5b505af1158015610968573d6000803e3d6000fd5b505050506040513d602081101561097e57600080fd5b81019080805190602001909291905050501515610a03576040517f08c379a00000000000000000000000000000000000000000000000000000000081526004018080602001828103825260178152602001807f4e4543207472616e7366657246726f6d206661696c656400000000000000000081525060200191505060405180910390fd5b6000610a0e826105c3565b9050610a1861082b565b600881905550600081111515610a96576040517f08c379a00000000000000000000000000000000000000000000000000000000081526004018080602001828103825260138152602001807f4e6f20657468657220746f20706179206f75740000000000000000000000000081525060200191505060405180910390fd5b8060025410151515610b10576040517f08c379a000000000000000000000000000000000000000000000000000000000815260040180806020018281038252601f8152602001807f4e6f7420656e6f756768206c697175696420657468657220746f2073656e640081525060200191505060405180910390fd5b610b2581600254610e6e90919063ffffffff16565b600281905550610b4082600654610c8490919063ffffffff16565b6006819055503373ffffffffffffffffffffffffffffffffffffffff166108fc829081150290604051600060405180830381858888f19350505050158015610b8c573d6000803e3d6000fd5b50610b95610516565b73ffffffffffffffffffffffffffffffffffffffff16634f37edfd836040518263ffffffff167c010000000000000000000000000000000000000000000000000000000002815260040180828152602001915050602060405180830381600087803b158015610c0357600080fd5b505af1158015610c17573d6000803e3d6000fd5b505050506040513d6020811015610c2d57600080fd5b8101908080519060200190929190505050507f410c5c259085cde81fedf70c1aa308ec839373c26e9b7ada6560a2aca0254eb682600854604051808381526020018281526020019250505060405180910390a15050565b6000808284019050838110151515610d04576040517f08c379a000000000000000000000000000000000000000000000000000000000815260040180806020018281038252601b8152602001807f536166654d6174683a206164646974696f6e206f766572666c6f77000000000081525060200191505060405180910390fd5b8091505092915050565b600080831415610d215760009050610dd5565b60008284029050828482811515610d3457fe5b04141515610dd0576040517f08c379a00000000000000000000000000000000000000000000000000000000081526004018080602001828103825260218152602001807f536166654d6174683a206d756c7469706c69636174696f6e206f766572666c6f81526020017f770000000000000000000000000000000000000000000000000000000000000081525060400191505060405180910390fd5b809150505b92915050565b60008082111515610e54576040517f08c379a000000000000000000000000000000000000000000000000000000000815260040180806020018281038252601a8152602001807f536166654d6174683a206469766973696f6e206279207a65726f00000000000081525060200191505060405180910390fd5b60008284811515610e6157fe5b0490508091505092915050565b6000828211151515610ee8576040517f08c379a000000000000000000000000000000000000000000000000000000000815260040180806020018281038252601e8152602001807f536166654d6174683a207375627472616374696f6e206f766572666c6f77000081525060200191505060405180910390fd5b60008284039050809150509291505056fea165627a7a72305820ea9d4133e6e30411b68efe7ab3e76f8ef1092db7dbf4b94385948398cf27edbf0029",
  "source": "pragma solidity ^0.5.0;\n\nimport \"@openzeppelin/contracts/math/SafeMath.sol\";\n\n// Loosely inspired by Melon Protocol Engine\n\n// This program is free software: you can redistribute it and/or modify\n// it under the terms of the GNU General Public License as published by\n// the Free Software Foundation, either version 3 of the License, or\n// (at your option) any later version.\n\n// This program is distributed in the hope that it will be useful,\n// but WITHOUT ANY WARRANTY; without even the implied warranty of\n// MERCHANTABILITY or FITNESS FOR A PARTICULAR PURPOSE.  See the\n// GNU General Public License for more details.\n\n// You should have received a copy of the GNU General Public License\n// along with this program.  If not, see <http://www.gnu.org/licenses/>.\n\n// TODO: add events for purchase/burn\n// TODO: track total burned by period\n// TODO: track total ether consumed over time\n// TODO: return next auction start time, check UI for other stats required.\n// Return next price change and time\n\n\ncontract BurnableToken {\n    function burnAndRetrieve(uint256 _tokensToBurn) public returns (bool success);\n    function transferFrom(address _from, address _to, uint256 _value) public returns (bool success);\n}\n\n/// @notice NEC Auction Engine\ncontract Engine {\n    using SafeMath for uint256;\n\n    event Thaw(uint amount);\n    event Burn(uint amount, uint price);\n    event FeesPaid(uint amount);\n\n    uint public constant NEC_DECIMALS = 18;\n    address public necAddress;\n\n    uint public frozenEther;\n    uint public liquidEther;\n    uint public lastThaw;\n    uint public thawingDelay;\n    uint public totalEtherConsumed;\n    uint public totalNecBurned;\n\n    uint private necPerEth; // Price at which the previous auction ended\n    uint private lastSuccessfulSale;\n\n    constructor(uint _delay, address _token) public {\n        lastThaw = block.timestamp;\n        thawingDelay = _delay;\n        necAddress = _token;\n        necPerEth = 1000;\n    }\n\n    function payFeesInEther() external payable {\n        totalEtherConsumed = totalEtherConsumed.add(msg.value);\n        frozenEther = frozenEther.add(msg.value);\n        emit FeesPaid(msg.value);\n    }\n\n    /// @notice Move frozen ether to liquid pool after delay\n    /// @dev Delay only restarts when this function is called\n    function thaw() external {\n        require(\n            block.timestamp >= lastThaw.add(thawingDelay),\n            \"Thawing delay has not passed\"\n        );\n        require(frozenEther > 0, \"No frozen ether to thaw\");\n        lastThaw = block.timestamp;\n        if (lastSuccessfulSale > 0) {\n          necPerEth = lastSuccessfulSale;\n        } else {\n          necPerEth = necPerEth.div(4);\n        }\n        liquidEther = liquidEther.add(frozenEther);\n        emit Thaw(frozenEther);\n        frozenEther = 0;\n    }\n\n    function percentageMultiplier() public view returns (uint) {\n        uint window = (now.sub(lastThaw)).mul(35).div(thawingDelay);\n        uint startingPercentage = 200;\n        return (startingPercentage - (window.mul(5)));\n    }\n\n    /// @return NEC per ETH including premium\n    function enginePrice() public view returns (uint) {\n        return necPerEth.mul(percentageMultiplier()).div(100);\n    }\n\n    function ethPayoutForNecAmount(uint necAmount) public view returns (uint) {\n        return necAmount.mul(enginePrice()).div(10 ** uint(NEC_DECIMALS));\n    }\n\n    /// @notice NEC must be approved first\n    function sellAndBurnNec(uint necAmount) external {\n        require(\n            necToken().transferFrom(msg.sender, address(this), necAmount),\n            \"NEC transferFrom failed\"\n        );\n        uint ethToSend = ethPayoutForNecAmount(necAmount);\n        lastSuccessfulSale = enginePrice();\n        require(ethToSend > 0, \"No ether to pay out\");\n        require(liquidEther >= ethToSend, \"Not enough liquid ether to send\");\n        liquidEther = liquidEther.sub(ethToSend);\n        totalNecBurned = totalNecBurned.add(necAmount);\n        msg.sender.transfer(ethToSend);\n        necToken().burnAndRetrieve(necAmount);\n        emit Burn(necAmount, lastSuccessfulSale);\n    }\n\n    /// @dev Get NEC token\n    function necToken()\n        public\n        view\n        returns (BurnableToken)\n    {\n        return BurnableToken(necAddress);\n    }\n\n\n\n    /// Useful read functions for UI\n    function getNextPriceChange() public view returns (\n        uint newPrice,\n        uint nextChangeTimeSeconds) {\n      newPrice = 0;\n      nextChangeTimeSeconds = 0;\n    }\n\n    function getNextAuction() public view returns (\n        uint nextStartTimeSeconds,\n        uint ethAvailable,\n        uint startingPrice\n        ) {\n\n    }\n\n    function getEthAuctioned(uint auctionNumber) public view returns (uint) {\n\n    }\n\n    function getNecBurned(uint auctionNumber) public view returns (uint) {\n\n    }\n\n\n}\n",
  "sourcePath": "/Users/willharborne/Desktop/EFX/repos/nec-engine/contracts/Engine.sol",
  "compiler": {
    "name": "solc",
    "version": "0.5.0+commit.1d4f565a.Emscripten.clang"
  },
  "schemaVersion": "3.0.9",
  "updatedAt": "2019-11-12T14:59:27.154Z",
  "devdoc": {
    "methods": {
      "enginePrice()": {
        "return": "NEC per ETH including premium"
      },
      "necToken()": {
        "details": "Get NEC token"
      },
      "thaw()": {
        "details": "Delay only restarts when this function is called"
      }
    }
  },
  "userdoc": {
    "methods": {
      "getNextPriceChange()": {
        "notice": "Useful read functions for UI"
      },
      "sellAndBurnNec(uint256)": {
        "notice": "NEC must be approved first"
      },
      "thaw()": {
        "notice": "Move frozen ether to liquid pool after delay"
      }
    },
    "notice": "NEC Auction Engine"
  }
}